{
  "contractName": "ArchiveCertification",
  "abi": [
    {
      "constant": true,
      "inputs": [
        {
          "name": "",
          "type": "uint256"
        }
      ],
      "name": "certificates",
      "outputs": [
        {
          "name": "id",
          "type": "uint256"
        },
        {
          "name": "process_owner",
          "type": "address"
        },
        {
          "name": "name",
          "type": "string"
        },
        {
          "name": "description",
          "type": "string"
        },
        {
          "name": "process_data",
          "type": "string"
        },
        {
          "name": "unique_identifier",
          "type": "uint256"
        }
      ],
      "payable": false,
      "stateMutability": "view",
      "type": "function"
    },
    {
      "inputs": [],
      "payable": false,
      "stateMutability": "nonpayable",
      "type": "constructor"
    },
    {
      "anonymous": false,
      "inputs": [
        {
          "indexed": true,
          "name": "_id",
          "type": "uint256"
        },
        {
          "indexed": true,
          "name": "_process_owner",
          "type": "address"
        },
        {
          "indexed": false,
          "name": "_name",
          "type": "string"
        },
        {
          "indexed": false,
          "name": "_process_data",
          "type": "string"
        }
      ],
      "name": "LogSignCertificate",
      "type": "event"
    },
    {
      "anonymous": false,
      "inputs": [
        {
          "indexed": true,
          "name": "_process_owner",
          "type": "address"
        },
        {
          "indexed": false,
          "name": "_name",
          "type": "string"
        },
        {
          "indexed": false,
          "name": "_process_data",
          "type": "string"
        }
      ],
      "name": "LogModifyCertificate",
      "type": "event"
    },
    {
      "anonymous": false,
      "inputs": [
        {
          "indexed": true,
          "name": "_process_owner",
          "type": "address"
        },
        {
          "indexed": false,
          "name": "_name",
          "type": "string"
        }
      ],
      "name": "LogModifyProcessOwner",
      "type": "event"
    },
    {
      "constant": true,
      "inputs": [],
      "name": "getLastBlockTimestamp",
      "outputs": [
        {
          "name": "",
          "type": "uint256"
        }
      ],
      "payable": false,
      "stateMutability": "view",
      "type": "function"
    },
    {
      "constant": true,
      "inputs": [],
      "name": "getContractOwner",
      "outputs": [
        {
          "name": "",
          "type": "address"
        }
      ],
      "payable": false,
      "stateMutability": "view",
      "type": "function"
    },
    {
      "constant": false,
      "inputs": [],
      "name": "kill",
      "outputs": [],
      "payable": false,
      "stateMutability": "nonpayable",
      "type": "function"
    },
    {
      "constant": false,
      "inputs": [
        {
          "name": "_process_owner",
          "type": "address"
        },
        {
          "name": "_name",
          "type": "string"
        },
        {
          "name": "_description",
          "type": "string"
        },
        {
          "name": "_process_data",
          "type": "string"
        },
        {
          "name": "_unique_identifier",
          "type": "uint256"
        }
      ],
      "name": "signCertificate",
      "outputs": [],
      "payable": false,
      "stateMutability": "nonpayable",
      "type": "function"
    },
    {
      "constant": true,
      "inputs": [],
      "name": "getNumberOfCertificates",
      "outputs": [
        {
          "name": "",
          "type": "uint256"
        }
      ],
      "payable": false,
      "stateMutability": "view",
      "type": "function"
    },
    {
      "constant": true,
      "inputs": [
        {
          "name": "_index",
          "type": "uint256"
        },
        {
          "name": "_unique_identifier",
          "type": "uint256"
        }
      ],
      "name": "getCertificate",
      "outputs": [
        {
          "name": "",
          "type": "string"
        },
        {
          "name": "",
          "type": "string"
        },
        {
          "name": "",
          "type": "address"
        },
        {
          "name": "",
          "type": "address"
        }
      ],
      "payable": false,
      "stateMutability": "view",
      "type": "function"
    },
    {
      "constant": false,
      "inputs": [
        {
          "name": "_index",
          "type": "uint256"
        },
        {
          "name": "_information",
          "type": "string"
        }
      ],
      "name": "modifyCertificate",
      "outputs": [],
      "payable": false,
      "stateMutability": "nonpayable",
      "type": "function"
    },
    {
      "constant": false,
      "inputs": [
        {
          "name": "_index",
          "type": "uint256"
        },
        {
          "name": "_nextProcessOwner",
          "type": "address"
        },
        {
          "name": "_strNextProcessOwner",
          "type": "string"
        }
      ],
      "name": "modifyProcessOwner",
      "outputs": [],
      "payable": false,
      "stateMutability": "nonpayable",
      "type": "function"
    },
    {
      "constant": true,
      "inputs": [
        {
          "name": "_index",
          "type": "uint256"
        }
      ],
      "name": "getCertificateOwner",
      "outputs": [
        {
          "name": "",
          "type": "address"
        }
      ],
      "payable": false,
      "stateMutability": "view",
      "type": "function"
    }
  ],
  "bytecode": "0x608060405234801561001057600080fd5b50336000806101000a81548173ffffffffffffffffffffffffffffffffffffffff021916908373ffffffffffffffffffffffffffffffffffffffff160217905550611886806100606000396000f3fe608060405234801561001057600080fd5b506004361061009e5760003560e01c8063663b3e2211610066578063663b3e22146104b45780637282693e1461067457806384e814ef14610692578063ad9df70d14610700578063b6428fe1146108835761009e565b80631368319f146100a35780632301285c146102b657806341c0e1b51461037b578063442890d51461038557806345f1b0df146103cf575b600080fd5b6102b4600480360360a08110156100b957600080fd5b81019080803573ffffffffffffffffffffffffffffffffffffffff169060200190929190803590602001906401000000008111156100f657600080fd5b82018360208201111561010857600080fd5b8035906020019184600183028401116401000000008311171561012a57600080fd5b91908080601f016020809104026020016040519081016040528093929190818152602001838380828437600081840152601f19601f8201169050808301925050505050505091929192908035906020019064010000000081111561018d57600080fd5b82018360208201111561019f57600080fd5b803590602001918460018302840111640100000000831117156101c157600080fd5b91908080601f016020809104026020016040519081016040528093929190818152602001838380828437600081840152601f19601f8201169050808301925050505050505091929192908035906020019064010000000081111561022457600080fd5b82018360208201111561023657600080fd5b8035906020019184600183028401116401000000008311171561025857600080fd5b91908080601f016020809104026020016040519081016040528093929190818152602001838380828437600081840152601f19601f820116905080830192505050505050509192919290803590602001909291905050506108a1565b005b610379600480360360408110156102cc57600080fd5b8101908080359060200190929190803590602001906401000000008111156102f357600080fd5b82018360208201111561030557600080fd5b8035906020019184600183028401116401000000008311171561032757600080fd5b91908080601f016020809104026020016040519081016040528093929190818152602001838380828437600081840152601f19601f820116905080830192505050505050509192919290505050610b45565b005b610383610eca565b005b61038d610f5d565b604051808273ffffffffffffffffffffffffffffffffffffffff1673ffffffffffffffffffffffffffffffffffffffff16815260200191505060405180910390f35b6104b2600480360360608110156103e557600080fd5b8101908080359060200190929190803573ffffffffffffffffffffffffffffffffffffffff1690602001909291908035906020019064010000000081111561042c57600080fd5b82018360208201111561043e57600080fd5b8035906020019184600183028401116401000000008311171561046057600080fd5b91908080601f016020809104026020016040519081016040528093929190818152602001838380828437600081840152601f19601f820116905080830192505050505050509192919290505050610f86565b005b6104e0600480360360208110156104ca57600080fd5b81019080803590602001909291905050506112e2565b604051808781526020018673ffffffffffffffffffffffffffffffffffffffff1673ffffffffffffffffffffffffffffffffffffffff168152602001806020018060200180602001858152602001848103845288818151815260200191508051906020019080838360005b8381101561056657808201518184015260208101905061054b565b50505050905090810190601f1680156105935780820380516001836020036101000a031916815260200191505b50848103835287818151815260200191508051906020019080838360005b838110156105cc5780820151818401526020810190506105b1565b50505050905090810190601f1680156105f95780820380516001836020036101000a031916815260200191505b50848103825286818151815260200191508051906020019080838360005b83811015610632578082015181840152602081019050610617565b50505050905090810190601f16801561065f5780820380516001836020036101000a031916815260200191505b50995050505050505050505060405180910390f35b61067c611506565b6040518082815260200191505060405180910390f35b6106be600480360360208110156106a857600080fd5b810190808035906020019092919050505061150e565b604051808273ffffffffffffffffffffffffffffffffffffffff1673ffffffffffffffffffffffffffffffffffffffff16815260200191505060405180910390f35b6107366004803603604081101561071657600080fd5b810190808035906020019092919080359060200190929190505050611553565b6040518080602001806020018573ffffffffffffffffffffffffffffffffffffffff1673ffffffffffffffffffffffffffffffffffffffff1681526020018473ffffffffffffffffffffffffffffffffffffffff1673ffffffffffffffffffffffffffffffffffffffff168152602001838103835287818151815260200191508051906020019080838360005b838110156107de5780820151818401526020810190506107c3565b50505050905090810190601f16801561080b5780820380516001836020036101000a031916815260200191505b50838103825286818151815260200191508051906020019080838360005b83811015610844578082015181840152602081019050610829565b50505050905090810190601f1680156108715780820380516001836020036101000a031916815260200191505b50965050505050505060405180910390f35b61088b61172b565b6040518082815260200191505060405180910390f35b6000809054906101000a900473ffffffffffffffffffffffffffffffffffffffff1673ffffffffffffffffffffffffffffffffffffffff163373ffffffffffffffffffffffffffffffffffffffff16146108fa57600080fd5b6001600081548092919060010191905055506040518060c0016040528060015481526020018673ffffffffffffffffffffffffffffffffffffffff168152602001858152602001848152602001838152602001828152506002600060015481526020019081526020016000206000820151816000015560208201518160010160006101000a81548173ffffffffffffffffffffffffffffffffffffffff021916908373ffffffffffffffffffffffffffffffffffffffff16021790555060408201518160020190805190602001906109d3929190611735565b5060608201518160030190805190602001906109f0929190611735565b506080820151816004019080519060200190610a0d929190611735565b5060a082015181600501559050508473ffffffffffffffffffffffffffffffffffffffff166001547f05f99c59c73829d0653854eb970871d9b60d9458ebe311842153bfaeea6b288d8685604051808060200180602001838103835285818151815260200191508051906020019080838360005b83811015610a9c578082015181840152602081019050610a81565b50505050905090810190601f168015610ac95780820380516001836020036101000a031916815260200191505b50838103825284818151815260200191508051906020019080838360005b83811015610b02578082015181840152602081019050610ae7565b50505050905090810190601f168015610b2f5780820380516001836020036101000a031916815260200191505b5094505050505060405180910390a35050505050565b6002600083815260200190815260200160002060010160009054906101000a900473ffffffffffffffffffffffffffffffffffffffff1673ffffffffffffffffffffffffffffffffffffffff163373ffffffffffffffffffffffffffffffffffffffff1614610bb357600080fd5b6000600260008481526020019081526020016000209050606081600401836040516020018083805460018160011615610100020316600290048015610c2f5780601f10610c0d576101008083540402835291820191610c2f565b820191906000526020600020905b815481529060010190602001808311610c1b575b5050807fc2a700000000000000000000000000000000000000000000000000000000000081525060020182805190602001908083835b60208310610c885780518252602082019150602081019050602083039250610c65565b6001836020036101000a03801982511681845116808217855250505050505090500192505050604051602081830303815290604052905080826004019080519060200190610cd79291906117b5565b506060826002018054600181600116156101000203166002900480601f016020809104026020016040519081016040528092919081815260200182805460018160011615610100020316600290048015610d725780601f10610d4757610100808354040283529160200191610d72565b820191906000526020600020905b815481529060010190602001808311610d5557829003601f168201915b5050505050905060008360010160009054906101000a900473ffffffffffffffffffffffffffffffffffffffff1690508073ffffffffffffffffffffffffffffffffffffffff167ff0cb33e2270474f94091378b9492ec04830b53e88449fad3600ef3371098a8578387604051808060200180602001838103835285818151815260200191508051906020019080838360005b83811015610e20578082015181840152602081019050610e05565b50505050905090810190601f168015610e4d5780820380516001836020036101000a031916815260200191505b50838103825284818151815260200191508051906020019080838360005b83811015610e86578082015181840152602081019050610e6b565b50505050905090810190601f168015610eb35780820380516001836020036101000a031916815260200191505b5094505050505060405180910390a2505050505050565b6000809054906101000a900473ffffffffffffffffffffffffffffffffffffffff1673ffffffffffffffffffffffffffffffffffffffff163373ffffffffffffffffffffffffffffffffffffffff1614610f2357600080fd5b6000809054906101000a900473ffffffffffffffffffffffffffffffffffffffff1673ffffffffffffffffffffffffffffffffffffffff16ff5b60008060009054906101000a900473ffffffffffffffffffffffffffffffffffffffff16905090565b6002600084815260200190815260200160002060010160009054906101000a900473ffffffffffffffffffffffffffffffffffffffff1673ffffffffffffffffffffffffffffffffffffffff163373ffffffffffffffffffffffffffffffffffffffff1614610ff457600080fd5b6000600260008581526020019081526020016000209050828160010160006101000a81548173ffffffffffffffffffffffffffffffffffffffff021916908373ffffffffffffffffffffffffffffffffffffffff1602179055506060816002018054600181600116156101000203166002900480601f0160208091040260200160405190810160405280929190818152602001828054600181600116156101000203166002900480156110e85780601f106110bd576101008083540402835291602001916110e8565b820191906000526020600020905b8154815290600101906020018083116110cb57829003601f168201915b5050505050905060008260010160009054906101000a900473ffffffffffffffffffffffffffffffffffffffff16905060608360040185604051602001808380546001816001161561010002031660029004801561117d5780601f1061115b57610100808354040283529182019161117d565b820191906000526020600020905b815481529060010190602001808311611169575b5050807fc2a7c2a70000000000000000000000000000000000000000000000000000000081525060040182805190602001908083835b602083106111d657805182526020820191506020810190506020830392506111b3565b6001836020036101000a038019825116818451168082178552505050505050905001925050506040516020818303038152906040529050808460040190805190602001906112259291906117b5565b508173ffffffffffffffffffffffffffffffffffffffff167fe6fda4879f98df69520a94e73b57cd46f6a4b985022387ab2692c2ffe9629258846040518080602001828103825283818151815260200191508051906020019080838360005b8381101561129f578082015181840152602081019050611284565b50505050905090810190601f1680156112cc5780820380516001836020036101000a031916815260200191505b509250505060405180910390a250505050505050565b60026020528060005260406000206000915090508060000154908060010160009054906101000a900473ffffffffffffffffffffffffffffffffffffffff1690806002018054600181600116156101000203166002900480601f0160208091040260200160405190810160405280929190818152602001828054600181600116156101000203166002900480156113ba5780601f1061138f576101008083540402835291602001916113ba565b820191906000526020600020905b81548152906001019060200180831161139d57829003601f168201915b505050505090806003018054600181600116156101000203166002900480601f0160208091040260200160405190810160405280929190818152602001828054600181600116156101000203166002900480156114585780601f1061142d57610100808354040283529160200191611458565b820191906000526020600020905b81548152906001019060200180831161143b57829003601f168201915b505050505090806004018054600181600116156101000203166002900480601f0160208091040260200160405190810160405280929190818152602001828054600181600116156101000203166002900480156114f65780601f106114cb576101008083540402835291602001916114f6565b820191906000526020600020905b8154815290600101906020018083116114d957829003601f168201915b5050505050908060050154905086565b600042905090565b6000806002600084815260200190815260200160002090508060010160009054906101000a900473ffffffffffffffffffffffffffffffffffffffff16915050919050565b6060806000808460026000888152602001908152602001600020600501541461157b57600080fd5b600260008781526020019081526020016000206002016002600088815260200190815260200160002060040133600260008a815260200190815260200160002060010160009054906101000a900473ffffffffffffffffffffffffffffffffffffffff16838054600181600116156101000203166002900480601f0160208091040260200160405190810160405280929190818152602001828054600181600116156101000203166002900480156116745780601f1061164957610100808354040283529160200191611674565b820191906000526020600020905b81548152906001019060200180831161165757829003601f168201915b50505050509350828054600181600116156101000203166002900480601f0160208091040260200160405190810160405280929190818152602001828054600181600116156101000203166002900480156117105780601f106116e557610100808354040283529160200191611710565b820191906000526020600020905b8154815290600101906020018083116116f357829003601f168201915b50505050509250819150935093509350935092959194509250565b6000600154905090565b828054600181600116156101000203166002900490600052602060002090601f016020900481019282601f1061177657805160ff19168380011785556117a4565b828001600101855582156117a4579182015b828111156117a3578251825591602001919060010190611788565b5b5090506117b19190611835565b5090565b828054600181600116156101000203166002900490600052602060002090601f016020900481019282601f106117f657805160ff1916838001178555611824565b82800160010185558215611824579182015b82811115611823578251825591602001919060010190611808565b5b5090506118319190611835565b5090565b61185791905b8082111561185357600081600090555060010161183b565b5090565b9056fea165627a7a7230582081a654faf6f3cc685379ce0c52ff20049e9d2b3748b43d341b59dae80f14ddda0029",
  "source": "pragma solidity ^0.5.7;\n\ncontract ArchiveCertification{\n\n  struct Certificate{\n    uint id;\n    address process_owner;\n    string name;\n    string description;\n    string process_data;\n    uint256 unique_identifier;\n  }\n\n  // state variables\n  address payable contract_owner;\n  uint certificateCounter;\n  mapping (uint => Certificate) public certificates;\n\n  // modifiers\n  modifier contractOwner() {\n    require(msg.sender == contract_owner);\n    _;\n  }\n\n  // constructor\n  constructor () public {\n    contract_owner = msg.sender;\n  }\n\n  function getLastBlockTimestamp() public view returns (uint) {\n    return  block.timestamp;\n  }\n\n\n  function getContractOwner() public view returns (address){\n    return contract_owner;\n  }\n\n\n  // deactivate the contract\n  function kill() public contractOwner {\n    selfdestruct(contract_owner);\n  }\n\n  // events\n  event LogSignCertificate(\n    uint indexed _id,\n    address indexed _process_owner,\n    string _name,\n    string _process_data\n  );\n\n  // events\n  event LogModifyCertificate(\n    address indexed _process_owner,\n    string _name,\n    string _process_data\n  );\n\n  // events\n  event LogModifyProcessOwner(\n    address indexed _process_owner,\n    string _name\n  );\n\n\n  function signCertificate(address _process_owner, string memory _name, string memory _description, string memory _process_data, uint256 _unique_identifier) public contractOwner{\n    // index new certificate\n    certificateCounter++;\n    // store the certificate\n    certificates[certificateCounter] = Certificate(\n      certificateCounter,\n      _process_owner,\n      _name,\n      _description,\n      _process_data,\n      _unique_identifier\n     );\n\n    emit LogSignCertificate(certificateCounter, _process_owner, _name, _process_data);\n  }\n\n  // fetch the number of certificate in the contract\n  function getNumberOfCertificates() public view returns (uint) {\n    return certificateCounter;\n  }\n\n  function getCertificate(uint _index, uint _unique_identifier) public view returns (string memory, string memory, address, address){\n    //require(msg.sender == certificates[_index].process_owner);\n    require(certificates[_index].unique_identifier == _unique_identifier);\n    return (certificates[_index].name, certificates[_index].process_data, msg.sender, certificates[_index].process_owner);\n  }\n\n  function modifyCertificate(uint _index, string memory _information) public {\n    require(msg.sender == certificates[_index].process_owner);\n    Certificate storage certificate = certificates[_index];\n    string memory a = string(abi.encodePacked(certificate.process_data,'§', _information));\n    certificate.process_data = a;\n    string memory name = certificate.name;\n    address process_owner = certificate.process_owner;\n    emit LogModifyCertificate(process_owner, name, _information);\n  }\n\n  function modifyProcessOwner(uint _index, address _nextProcessOwner, string memory _strNextProcessOwner) public {\n    require(msg.sender == certificates[_index].process_owner);\n    Certificate storage certificate = certificates[_index];\n    certificate.process_owner = _nextProcessOwner;\n    string memory name = certificate.name;\n    address process_owner = certificate.process_owner;\n    string memory a = string(abi.encodePacked(certificate.process_data,'§§', _strNextProcessOwner));\n    certificate.process_data = a;\n    emit LogModifyProcessOwner(process_owner, name);\n  }\n  \n  function getCertificateOwner(uint _index) public view returns (address){\n    Certificate storage certificate = certificates[_index];\n    return certificate.process_owner;\n  }\n\n\n}\n",
  "sourcePath": "/home/ferdi/BCSifiSC_Ropsten/contracts/ArchiveCertification.sol",
  "compiler": {
    "name": "solc",
    "version": "0.5.8+commit.23d335f2.Emscripten.clang"
  },
  "schemaVersion": "3.0.11",
  "updatedAt": "2019-08-12T10:06:52.691Z",
  "devdoc": {
    "methods": {}
  },
  "userdoc": {
    "methods": {}
  }
}